:02000000A02935
:0400060000000800EE
:10000A00103083120313FD00FD0B092800000800BD
:10001A00083083120313FC002330FD00FD0B132864
:06002A00FC0B1328080086
:1000300083160313EB1B1F288312861321288312B8
:10004000861783166B1B2728831206132928831211
:1000500006178316EB1A2F28831286123128831273
:10006000861683166B1A37288312061239288312D4
:10007000061668183D2806153E2806118615032029
:1000800086118316EB194728831286134928831299
:10009000861783166B194F28831206135128831273
:1000A00006178316EB1857288312861259288312D5
:1000B000861683166B185F28831206126128831236
:1000C0000616681865280615662806118615032089
:0E00D0008611681C6D280D206E280520080082
:0E00DE00033083120313FD00FD0B732808008E
:1000EC0083120313681083166608EB00182068143B
:0200FC000800FA
:0E00FE008312031367088A0066088200080058
:10010C0083160313E601E801E9011030EA0004301C
:10011C0069020318B428F0308312880083166A0928
:10012C008800032003200F3083120805F0007008AC
:10013C008316E70070080319AE286808E600670804
:10014C000319AC28E70CE713E60AA5280430E900EC
:10015C00EA0D6A100430E807E90A8D286608F000F9
:02016C00080089
:10016E0086207008E2000F3083120805F000031994
:0E017E00C2286F20BA2883166208F00008001D
:10018C00D828803083160313E200EB28C030E2003D
:10019C00EB289430E200EB28D430E200EB288030DE
:1001AC00E200EB28831603136208013A0319C728EF
:1001BC006208023A0319CC286208033A0319CF28C3
:1001CC006208043A0319D228D5286303F0006208A8
:1001DC00F0077008E2008312681470088316EB00B5
:1001EC001820681083166408EB00182068140800A7
:1001FC001029803083160313E2002329C030E2005B
:10020C0023299430E2002329D430E20023298030C2
:10021C00E2002329831603136208013A0319FF280D
:10022C006208023A031904296208033A03190729E0
:10023C006208043A03190A290D296303F0006208C5
:10024C00F0077008E2007008EB00182068108316A5
:10025C00E501650864078400000803193E29650858
:10026C00640784000008E60076208316E50A2F292F
:06027C0083126814080063
:0A028200FF30831603138800080004
:10028C007F208A110A128000840AE60A0319E70A01
:08029C00F003031D46290800D0
:1002A400831603138611061106128612061386138B
:1002B40083128611061186130613861206120D2068
:1002C4000D200D20861606168615032086110D2096
:1002D4008615032086110D208615032086110D2016
:1002E40006128615032086110D208615032086111B
:1002F400861286178615032086110D20861306168E
:1003040086150320861106128615032086110D20FA
:1003140086150320861106168615032086110D20E6
:1003240006128615032086118617061786160616EA
:0C0334008615032086110D2068140800B7
:10034000A827083083160313DC000030DD001130CD
:10035000DE000030DF00E001E101412152210C30DC
:100360008316EB00182001308316E2000430E3000E
:100370002030E400FE200630FB001330FC00AD30DE
:10038000FD00FD0BC129FC0BC129FB0BC12900009D
:10039000000001308316EB00182011308316DC00BA
:1003A0000030DD008030F00080305D067002031DFB
:1003B000DB295C08013C0318082A0130E2005C08D4
:1003C000E3005730E400FE2002308316E2005E08AE
:1003D000E300A030E400FE200230FB004530FC00CA
:1003E000A930FD00FD0BF229FC0BF229FB0BF229D1
:1003F0000000000001308316EB0018200130831646
:10040000DE02031CDF030130DC02031CDD03D22902
:100410000130E2000130E300BD30E400FE20023094
:100420008316E2000130E300AE30E400FE2010301D
:10043000FB003930FC000D30FD00FD0B1D2AFC0BCC
:100440001D2AFB0B1D2A0000000001308316EB0063
:10045000182001308316E2000130E3004A30E40046
:10046000FE200B30FB002630FC005D30FD00FD0B54
:10047000372AFC0B372AFB0B372A0000000001301B
:100480008316EB00182001308316E2000130E300F0
:100490003630E400FE200830FB009D30FC000530C3
:1004A000FD00FD0B512AFC0B512AFB0B512A0000C9
:1004B000000001308316EB00182001308316E200A3
:1004C0000130E3002830E400FE200B30FB00263032
:1004D000FC005D30FD00FD0B6B2AFC0B6B2AFB0B57
:1004E0006B2A0000000001308316EB001820013059
:1004F0008316E2000530E3004430E400FE20803043
:1005000083166106F00080307002031D892A0230D4
:1005100060020318862C6008693E84008001600830
:10052000693E8312EF00B72083126F0884007008C1
:10053000800083166008693E8400000803198F2A32
:100540006008693EF300A42B6008F0006108F10028
:10055000F00DF10D70107008CC3E84003730800033
:100560000030840A8000042C6008F0006108F1006B
:10057000F00DF10D70107008CC3E84003430800016
:100580000030840A8000042C6008F0006108F1004B
:10059000F00DF10D70107008CC3E840031308000F9
:1005A0000030840A8000042C6008F0006108F1002B
:1005B000F00DF10D70107008CC3E840043308000C7
:1005C0000030840A8000042C6008F0006108F1000B
:1005D000F00DF10D70107008CC3E840038308000B2
:1005E0000030840A8000042C6008F0006108F100EB
:1005F000F00DF10D70107008CC3E84003530800095
:100600000030840A8000042C6008F0006108F100CA
:10061000F00DF10D70107008CC3E84003230800077
:100620000030840A8000042C6008F0006108F100AA
:10063000F00DF10D70107008CC3E84003030800059
:100640000030840A8000042C6008F0006108F1008A
:10065000F00DF10D70107008CC3E84003930800030
:100660000030840A8000042C6008F0006108F1006A
:10067000F00DF10D70107008CC3E84003630800013
:100680000030840A8000042C6008F0006108F1004A
:10069000F00DF10D70107008CC3E840033308000F6
:1006A0000030840A8000042C6008F0006108F1002A
:1006B000F00DF10D70107008CC3E84003D308000CC
:1006C0000030840A8000042C6008F0006108F1000A
:1006D000F00DF10D70107008CC3E84002F308000BA
:1006E0000030840A8000042C6008F0006108F100EA
:1006F000F00DF10D70107008CC3E84002A3080009F
:100700000030840A8000042C6008F0006108F100C9
:10071000F00DF10D70107008CC3E84002D3080007B
:100720000030840A8000042C6008F0006108F100A9
:10073000F00DF10D70107008CC3E84002B3080005D
:100740000030840A8000042C730884000008013AF9
:100750000319A42A730884000008023A0319B42A72
:10076000730884000008033A0319C42A730884003C
:100770000008043A0319D42A730884000008053AD3
:100780000319E42A730884000008063A0319F42ABE
:10079000730884000008073A0319042B73088400C7
:1007A0000008083A0319142B730884000008093A5A
:1007B0000319242B7308840000080A3A0319342B08
:1007C0007308840000080B3A0319442B7308840053
:1007D00000080C3A0319542B7308840000080D3AE2
:1007E0000319642B7308840000080E3A0319742B54
:1007F0007308840000080F3A0319842B73088400DF
:100800000008103A0319942B80304D06F000803018
:100810007002031D0D2C33304C0203181B2C80304A
:10082000F00080304D067002031D182C4C082F3C40
:1008300003181B2C1C2C8B2A00306106031D222C54
:1008400001306006031D442C00304D06031D2A2C88
:1008500032304C06031D442C80304F06F0008030AF
:100860007002031D352C34304E020318432C8030A7
:10087000F00080304F067002031D402C4E082F3CC4
:100880000318432C442C8B2A00306106031D4A2C8C
:1008900001306006031D6F2C80304D06F000803063
:1008A0007002031D552C32304C0203186F2C80301F
:1008B0004F06F00080307002031D602C3A304E026B
:1008C00003186E2C8030F00080304F067002031D3C
:1008D0006B2C4E082F3C03186E2C6F2C8B2A01308A
:1008E000E20005306007E3006008F0006108F100F5
:1008F000F00DF10D70107008CC3E84000008E4008B
:10090000C6208316E00A0319E10A7F2A80306106B7
:10091000F00080307002031D8F2C02306002031C37
:10092000642E80306106F00080307002031D9A2C26
:10093000043060020318642E6008693E8400800160
:100940006008693E8312EF00B72083126F088400AD
:100950007008800083166008693E8400000803194F
:10096000A02C6008693EF300B52D6008F000610816
:10097000F100F00DF10D70107008CC3E840037309E
:1009800080000030840A8000152E6008F0006108A5
:10099000F100F00DF10D70107008CC3E8400343081
:1009A00080000030840A8000152E6008F000610885
:1009B000F100F00DF10D70107008CC3E8400313064
:1009C00080000030840A8000152E6008F000610865
:1009D000F100F00DF10D70107008CC3E8400433032
:1009E00080000030840A8000152E6008F000610845
:1009F000F100F00DF10D70107008CC3E840038301D
:100A000080000030840A8000152E6008F000610824
:100A1000F100F00DF10D70107008CC3E84003530FF
:100A200080000030840A8000152E6008F000610804
:100A3000F100F00DF10D70107008CC3E84003230E2
:100A400080000030840A8000152E6008F0006108E4
:100A5000F100F00DF10D70107008CC3E84003030C4
:100A600080000030840A8000152E6008F0006108C4
:100A7000F100F00DF10D70107008CC3E840039309B
:100A800080000030840A8000152E6008F0006108A4
:100A9000F100F00DF10D70107008CC3E840036307E
:100AA00080000030840A8000152E6008F000610884
:100AB000F100F00DF10D70107008CC3E8400333061
:100AC00080000030840A8000152E6008F000610864
:100AD000F100F00DF10D70107008CC3E84003D3037
:100AE00080000030840A8000152E6008F000610844
:100AF000F100F00DF10D70107008CC3E84002F3025
:100B000080000030840A8000152E6008F000610823
:100B1000F100F00DF10D70107008CC3E84002A3009
:100B200080000030840A8000152E6008F000610803
:100B3000F100F00DF10D70107008CC3E84002D30E6
:100B400080000030840A8000152E6008F0006108E3
:100B5000F100F00DF10D70107008CC3E84002B30C8
:100B600080000030840A8000152E7308840000087D
:100B7000013A0319B52C730884000008023A0319DE
:100B8000C52C730884000008033A0319D52C730898
:100B900084000008043A0319E52C73088400000857
:100BA000053A0319F52C730884000008063A031966
:100BB000052D730884000008073A0319152D7308E2
:100BC00084000008083A0319252D730884000008E2
:100BD000093A0319352D7308840000080A3A0319ED
:100BE000452D7308840000080B3A0319552D73082E
:100BF000840000080C3A0319652D7308840000086E
:100C00000D3A0319752D7308840000080E3A031974
:100C1000852D7308840000080F3A0319952D730879
:100C200084000008103A0319A52D80305106F00009
:100C300080307002031D1E2E3630500203182C2EF9
:100C40008030F000803051067002031D292E5008BC
:100C50002F3C03182C2E2D2E9C2C00306106031DDA
:100C6000332E03306006031D4D2E80305306F000F6
:100C700080307002031D3E2E3A30520203184C2E73
:100C80008030F000803053067002031D492E520858
:100C90002F3C03184C2E4D2E9C2C0130E2000630C8
:100CA0006007E3006008F0006108F100F00DF10D4D
:100CB00070107008CC3E84000008E400C620831643
:100CC000E00A0319E10A862C30308312EB00003071
:100CD000EC003030ED000030EE0083165208D400F6
:100CE0005308D5005008D6005108D7004E08D80048
:100CF0004F08D9004C08DA004D08DB000130EB004A
:100D0000182001308316E2000530E3005A08E400A1
:100D1000C62083165808E60076203A308316E6008F
:100D2000762083165608E600762083165408E600DF
:100D300076203A308316E60076206D088316E600AA
:100D400076206B088316E6007620EB0A0319EC0A7E
:100D500000306C06031DAE2E3A306B06031DB72E15
:100D6000ED0A0319EE0A3030EB000030EC000030E1
:100D70006E06031DBD2E36306D06031DC82E83166C
:100D8000D40A0319D50A30308312ED000030EE008A
:100D9000003083165506031DCF2E3A305406031D2E
:100DA000D82ED60A0319D70A3030D4000030D50027
:100DB00000305706031DDE2E36305606031DE72E83
:100DC000D80A0319D90A3030D6000030D7000030D5
:100DD0005906031DED2E3A305806031DF62EDA0A89
:100DE0000319DB0A3030D8000030D90000305B0630
:100DF000031DFC2E32305A06031D202F00305906E9
:100E0000031D042F34305806031D202F3030831269
:100E1000EB000030EC003030ED000030EE00303000
:100E20008316D4000030D5003030D6000030D70013
:100E30003030D8000030D9003030DA000030DB002C
:100E40000630FB001330FC00AD30FD00FD0B262FFB
:100E5000FC0B262FFB0B262F000000007E2E2F2FD1
:100F500020308400463083120313F0003530E60061
:100F60000730E7004621A03084002C300313F00046
:0C0F70007B30E6000730E7004621080057
:100E6A00573445344C3443344F344D3445340034CC
:100E7A0050345534543420345434483445342034AE
:0C0E8A00543449344D3445343A340034BB
:100E960041345234463441344F3455344934203485
:0C0EA60046344F34553445344434003495
:0C0EB200483448343A344D344D34003498
:100EBE0044344A344534423442344934203446347E
:0A0ECE0049345234413453340034E7
:100ED8005434483449345334203443344C344F3434
:0E0EE80043344B342034493453342034003426
:100EF600503452344F344734523441344D344534EF
:0C0F060044342034423459343A3400346E
:100F1200503452344F344734523441344D344534D2
:0E0F2200443420344234593420343A340034FC
:100F30005434483449345334203443344C344F34DB
:0E0F400043344B3420344934533420340034CD
:02400E004A2F37
:00000001FF
